{
  "contractName": "OnlineExam",
  "abi": [
    {
      "inputs": [],
      "payable": false,
      "stateMutability": "nonpayable",
      "type": "constructor"
    },
    {
      "anonymous": false,
      "inputs": [
        {
          "indexed": true,
          "internalType": "address",
          "name": "from",
          "type": "address"
        },
        {
          "indexed": true,
          "internalType": "address",
          "name": "to",
          "type": "address"
        },
        {
          "indexed": false,
          "internalType": "uint256",
          "name": "tokens",
          "type": "uint256"
        }
      ],
      "name": "Transfer",
      "type": "event"
    },
    {
      "constant": false,
      "inputs": [
        {
          "internalType": "uint256",
          "name": "examId",
          "type": "uint256"
        },
        {
          "internalType": "uint256",
          "name": "mark",
          "type": "uint256"
        },
        {
          "internalType": "uint256",
          "name": "correctIndex",
          "type": "uint256"
        },
        {
          "internalType": "string",
          "name": "statement",
          "type": "string"
        },
        {
          "internalType": "string",
          "name": "answerOne",
          "type": "string"
        },
        {
          "internalType": "string",
          "name": "answerTwo",
          "type": "string"
        },
        {
          "internalType": "string",
          "name": "answerThree",
          "type": "string"
        },
        {
          "internalType": "string",
          "name": "answerFour",
          "type": "string"
        }
      ],
      "name": "addQuestion",
      "outputs": [
        {
          "internalType": "bool",
          "name": "",
          "type": "bool"
        }
      ],
      "payable": false,
      "stateMutability": "nonpayable",
      "type": "function"
    },
    {
      "constant": false,
      "inputs": [
        {
          "internalType": "address",
          "name": "stuAddress",
          "type": "address"
        },
        {
          "internalType": "string",
          "name": "name",
          "type": "string"
        },
        {
          "internalType": "string",
          "name": "id",
          "type": "string"
        }
      ],
      "name": "addStudent",
      "outputs": [
        {
          "internalType": "bool",
          "name": "",
          "type": "bool"
        }
      ],
      "payable": false,
      "stateMutability": "nonpayable",
      "type": "function"
    },
    {
      "constant": false,
      "inputs": [
        {
          "internalType": "uint256",
          "name": "examId",
          "type": "uint256"
        },
        {
          "internalType": "address[]",
          "name": "student",
          "type": "address[]"
        }
      ],
      "name": "addStudentsToExam",
      "outputs": [
        {
          "internalType": "bool",
          "name": "",
          "type": "bool"
        }
      ],
      "payable": false,
      "stateMutability": "nonpayable",
      "type": "function"
    },
    {
      "constant": false,
      "inputs": [
        {
          "internalType": "address",
          "name": "teacherAddress",
          "type": "address"
        },
        {
          "internalType": "string",
          "name": "name",
          "type": "string"
        },
        {
          "internalType": "string",
          "name": "id",
          "type": "string"
        }
      ],
      "name": "addTeacher",
      "outputs": [
        {
          "internalType": "bool",
          "name": "",
          "type": "bool"
        }
      ],
      "payable": false,
      "stateMutability": "nonpayable",
      "type": "function"
    },
    {
      "constant": true,
      "inputs": [
        {
          "internalType": "address",
          "name": "tokenOwner",
          "type": "address"
        }
      ],
      "name": "balanceOf",
      "outputs": [
        {
          "internalType": "uint256",
          "name": "",
          "type": "uint256"
        }
      ],
      "payable": false,
      "stateMutability": "view",
      "type": "function"
    },
    {
      "constant": true,
      "inputs": [
        {
          "internalType": "address",
          "name": "receiver",
          "type": "address"
        },
        {
          "internalType": "uint256",
          "name": "examId",
          "type": "uint256"
        }
      ],
      "name": "checkTokenReceived",
      "outputs": [
        {
          "internalType": "bool",
          "name": "",
          "type": "bool"
        }
      ],
      "payable": false,
      "stateMutability": "view",
      "type": "function"
    },
    {
      "constant": false,
      "inputs": [
        {
          "internalType": "string",
          "name": "subject",
          "type": "string"
        },
        {
          "internalType": "uint256",
          "name": "date",
          "type": "uint256"
        },
        {
          "internalType": "uint256",
          "name": "durationMinutes",
          "type": "uint256"
        }
      ],
      "name": "createExam",
      "outputs": [
        {
          "internalType": "uint256",
          "name": "",
          "type": "uint256"
        }
      ],
      "payable": false,
      "stateMutability": "nonpayable",
      "type": "function"
    },
    {
      "constant": true,
      "inputs": [],
      "name": "decimals",
      "outputs": [
        {
          "internalType": "uint8",
          "name": "",
          "type": "uint8"
        }
      ],
      "payable": false,
      "stateMutability": "view",
      "type": "function"
    },
    {
      "constant": true,
      "inputs": [
        {
          "internalType": "uint256",
          "name": "",
          "type": "uint256"
        }
      ],
      "name": "exams",
      "outputs": [
        {
          "internalType": "uint256",
          "name": "startTime",
          "type": "uint256"
        },
        {
          "internalType": "string",
          "name": "subject",
          "type": "string"
        },
        {
          "internalType": "address",
          "name": "teacher",
          "type": "address"
        },
        {
          "internalType": "uint256",
          "name": "duration",
          "type": "uint256"
        },
        {
          "internalType": "uint256",
          "name": "date",
          "type": "uint256"
        }
      ],
      "payable": false,
      "stateMutability": "view",
      "type": "function"
    },
    {
      "constant": true,
      "inputs": [],
      "name": "getAllExams",
      "outputs": [
        {
          "components": [
            {
              "internalType": "uint256",
              "name": "examId",
              "type": "uint256"
            },
            {
              "internalType": "uint256",
              "name": "startTime",
              "type": "uint256"
            },
            {
              "internalType": "string",
              "name": "subject",
              "type": "string"
            },
            {
              "internalType": "string",
              "name": "teacher",
              "type": "string"
            },
            {
              "internalType": "uint256",
              "name": "duration",
              "type": "uint256"
            },
            {
              "internalType": "uint256",
              "name": "date",
              "type": "uint256"
            },
            {
              "components": [
                {
                  "internalType": "uint256",
                  "name": "mark",
                  "type": "uint256"
                },
                {
                  "internalType": "uint256",
                  "name": "correctIndex",
                  "type": "uint256"
                },
                {
                  "internalType": "string",
                  "name": "statement",
                  "type": "string"
                },
                {
                  "internalType": "string[4]",
                  "name": "answers",
                  "type": "string[4]"
                }
              ],
              "internalType": "struct OnlineExam.Question[]",
              "name": "questions",
              "type": "tuple[]"
            },
            {
              "internalType": "address[]",
              "name": "studentsCount",
              "type": "address[]"
            }
          ],
          "internalType": "struct OnlineExam.AllExam[]",
          "name": "",
          "type": "tuple[]"
        }
      ],
      "payable": false,
      "stateMutability": "view",
      "type": "function"
    },
    {
      "constant": true,
      "inputs": [],
      "name": "getAllStudents",
      "outputs": [
        {
          "components": [
            {
              "internalType": "address",
              "name": "userAddress",
              "type": "address"
            },
            {
              "internalType": "string",
              "name": "name",
              "type": "string"
            },
            {
              "internalType": "string",
              "name": "UniId",
              "type": "string"
            }
          ],
          "internalType": "struct OnlineExam.Users[]",
          "name": "",
          "type": "tuple[]"
        }
      ],
      "payable": false,
      "stateMutability": "view",
      "type": "function"
    },
    {
      "constant": true,
      "inputs": [],
      "name": "getAllTeachers",
      "outputs": [
        {
          "components": [
            {
              "internalType": "address",
              "name": "userAddress",
              "type": "address"
            },
            {
              "internalType": "string",
              "name": "name",
              "type": "string"
            },
            {
              "internalType": "string",
              "name": "UniId",
              "type": "string"
            }
          ],
          "internalType": "struct OnlineExam.Users[]",
          "name": "",
          "type": "tuple[]"
        }
      ],
      "payable": false,
      "stateMutability": "view",
      "type": "function"
    },
    {
      "constant": true,
      "inputs": [
        {
          "internalType": "uint256",
          "name": "examId",
          "type": "uint256"
        }
      ],
      "name": "getExam",
      "outputs": [
        {
          "internalType": "string",
          "name": "",
          "type": "string"
        },
        {
          "internalType": "string",
          "name": "",
          "type": "string"
        },
        {
          "internalType": "uint256",
          "name": "",
          "type": "uint256"
        },
        {
          "components": [
            {
              "internalType": "uint256",
              "name": "mark",
              "type": "uint256"
            },
            {
              "internalType": "uint256",
              "name": "correctIndex",
              "type": "uint256"
            },
            {
              "internalType": "string",
              "name": "statement",
              "type": "string"
            },
            {
              "internalType": "string[4]",
              "name": "answers",
              "type": "string[4]"
            }
          ],
          "internalType": "struct OnlineExam.Question[]",
          "name": "",
          "type": "tuple[]"
        }
      ],
      "payable": false,
      "stateMutability": "view",
      "type": "function"
    },
    {
      "constant": true,
      "inputs": [
        {
          "internalType": "uint256",
          "name": "examId",
          "type": "uint256"
        }
      ],
      "name": "getQuestions",
      "outputs": [
        {
          "components": [
            {
              "internalType": "uint256",
              "name": "mark",
              "type": "uint256"
            },
            {
              "internalType": "uint256",
              "name": "correctIndex",
              "type": "uint256"
            },
            {
              "internalType": "string",
              "name": "statement",
              "type": "string"
            },
            {
              "internalType": "string[4]",
              "name": "answers",
              "type": "string[4]"
            }
          ],
          "internalType": "struct OnlineExam.Question[]",
          "name": "",
          "type": "tuple[]"
        }
      ],
      "payable": false,
      "stateMutability": "view",
      "type": "function"
    },
    {
      "constant": true,
      "inputs": [
        {
          "internalType": "uint256",
          "name": "examId",
          "type": "uint256"
        }
      ],
      "name": "getResult",
      "outputs": [
        {
          "components": [
            {
              "internalType": "address",
              "name": "student",
              "type": "address"
            },
            {
              "internalType": "string",
              "name": "stuId",
              "type": "string"
            },
            {
              "components": [
                {
                  "internalType": "uint256",
                  "name": "questionId",
                  "type": "uint256"
                },
                {
                  "internalType": "uint256",
                  "name": "answerIndex",
                  "type": "uint256"
                },
                {
                  "internalType": "uint256",
                  "name": "markObtained",
                  "type": "uint256"
                }
              ],
              "internalType": "struct OnlineExam.ExamSubmission[]",
              "name": "examSubmission",
              "type": "tuple[]"
            }
          ],
          "internalType": "struct OnlineExam.ExamResult[]",
          "name": "",
          "type": "tuple[]"
        }
      ],
      "payable": false,
      "stateMutability": "view",
      "type": "function"
    },
    {
      "constant": true,
      "inputs": [
        {
          "internalType": "uint256",
          "name": "examId",
          "type": "uint256"
        }
      ],
      "name": "getStudentsOfExam",
      "outputs": [
        {
          "internalType": "address[]",
          "name": "",
          "type": "address[]"
        }
      ],
      "payable": false,
      "stateMutability": "view",
      "type": "function"
    },
    {
      "constant": true,
      "inputs": [
        {
          "internalType": "uint256",
          "name": "examId",
          "type": "uint256"
        }
      ],
      "name": "getTotalMarks",
      "outputs": [
        {
          "internalType": "uint256",
          "name": "",
          "type": "uint256"
        }
      ],
      "payable": false,
      "stateMutability": "view",
      "type": "function"
    },
    {
      "constant": true,
      "inputs": [],
      "name": "getTotalStudentsCount",
      "outputs": [
        {
          "internalType": "uint256",
          "name": "",
          "type": "uint256"
        }
      ],
      "payable": false,
      "stateMutability": "view",
      "type": "function"
    },
    {
      "constant": true,
      "inputs": [],
      "name": "getTotalSupply",
      "outputs": [
        {
          "internalType": "uint256",
          "name": "",
          "type": "uint256"
        }
      ],
      "payable": false,
      "stateMutability": "view",
      "type": "function"
    },
    {
      "constant": true,
      "inputs": [],
      "name": "getTotalTeachersCount",
      "outputs": [
        {
          "internalType": "uint256",
          "name": "",
          "type": "uint256"
        }
      ],
      "payable": false,
      "stateMutability": "view",
      "type": "function"
    },
    {
      "constant": true,
      "inputs": [],
      "name": "owner",
      "outputs": [
        {
          "internalType": "address",
          "name": "",
          "type": "address"
        }
      ],
      "payable": false,
      "stateMutability": "view",
      "type": "function"
    },
    {
      "constant": true,
      "inputs": [],
      "name": "remainingSupply",
      "outputs": [
        {
          "internalType": "uint256",
          "name": "",
          "type": "uint256"
        }
      ],
      "payable": false,
      "stateMutability": "view",
      "type": "function"
    },
    {
      "constant": false,
      "inputs": [
        {
          "internalType": "address",
          "name": "stuAddress",
          "type": "address"
        }
      ],
      "name": "removeStudent",
      "outputs": [
        {
          "internalType": "bool",
          "name": "",
          "type": "bool"
        }
      ],
      "payable": false,
      "stateMutability": "nonpayable",
      "type": "function"
    },
    {
      "constant": false,
      "inputs": [
        {
          "internalType": "address",
          "name": "teacherAddress",
          "type": "address"
        }
      ],
      "name": "removeTeacher",
      "outputs": [
        {
          "internalType": "bool",
          "name": "",
          "type": "bool"
        }
      ],
      "payable": false,
      "stateMutability": "nonpayable",
      "type": "function"
    },
    {
      "constant": false,
      "inputs": [
        {
          "internalType": "uint256",
          "name": "examId",
          "type": "uint256"
        }
      ],
      "name": "startExam",
      "outputs": [
        {
          "internalType": "bool",
          "name": "",
          "type": "bool"
        }
      ],
      "payable": false,
      "stateMutability": "nonpayable",
      "type": "function"
    },
    {
      "constant": true,
      "inputs": [
        {
          "internalType": "address",
          "name": "",
          "type": "address"
        }
      ],
      "name": "students",
      "outputs": [
        {
          "internalType": "address",
          "name": "userAddress",
          "type": "address"
        },
        {
          "internalType": "string",
          "name": "name",
          "type": "string"
        },
        {
          "internalType": "string",
          "name": "UniId",
          "type": "string"
        }
      ],
      "payable": false,
      "stateMutability": "view",
      "type": "function"
    },
    {
      "constant": false,
      "inputs": [
        {
          "internalType": "uint256",
          "name": "examId",
          "type": "uint256"
        },
        {
          "internalType": "uint256",
          "name": "questionId",
          "type": "uint256"
        },
        {
          "internalType": "uint256",
          "name": "answerIndex",
          "type": "uint256"
        }
      ],
      "name": "submitAnswer",
      "outputs": [
        {
          "internalType": "bool",
          "name": "",
          "type": "bool"
        }
      ],
      "payable": false,
      "stateMutability": "nonpayable",
      "type": "function"
    },
    {
      "constant": true,
      "inputs": [
        {
          "internalType": "address",
          "name": "",
          "type": "address"
        }
      ],
      "name": "teachers",
      "outputs": [
        {
          "internalType": "address",
          "name": "userAddress",
          "type": "address"
        },
        {
          "internalType": "string",
          "name": "name",
          "type": "string"
        },
        {
          "internalType": "string",
          "name": "UniId",
          "type": "string"
        }
      ],
      "payable": false,
      "stateMutability": "view",
      "type": "function"
    },
    {
      "constant": true,
      "inputs": [],
      "name": "tokenName",
      "outputs": [
        {
          "internalType": "string",
          "name": "",
          "type": "string"
        }
      ],
      "payable": false,
      "stateMutability": "view",
      "type": "function"
    },
    {
      "constant": true,
      "inputs": [],
      "name": "tokenSymbol",
      "outputs": [
        {
          "internalType": "string",
          "name": "",
          "type": "string"
        }
      ],
      "payable": false,
      "stateMutability": "view",
      "type": "function"
    },
    {
      "constant": true,
      "inputs": [
        {
          "internalType": "uint256",
          "name": "",
          "type": "uint256"
        }
      ],
      "name": "totalStudentsCount",
      "outputs": [
        {
          "internalType": "address",
          "name": "",
          "type": "address"
        }
      ],
      "payable": false,
      "stateMutability": "view",
      "type": "function"
    },
    {
      "constant": true,
      "inputs": [
        {
          "internalType": "uint256",
          "name": "",
          "type": "uint256"
        }
      ],
      "name": "totalTeachersCount",
      "outputs": [
        {
          "internalType": "address",
          "name": "",
          "type": "address"
        }
      ],
      "payable": false,
      "stateMutability": "view",
      "type": "function"
    },
    {
      "constant": false,
      "inputs": [
        {
          "internalType": "address",
          "name": "receiver",
          "type": "address"
        },
        {
          "internalType": "uint256",
          "name": "numTokens",
          "type": "uint256"
        },
        {
          "internalType": "uint256",
          "name": "examId",
          "type": "uint256"
        }
      ],
      "name": "transfer",
      "outputs": [
        {
          "internalType": "bool",
          "name": "",
          "type": "bool"
        }
      ],
      "payable": false,
      "stateMutability": "nonpayable",
      "type": "function"
    }
  ],
  "bytecode": "0x608060405264e8d4a5100060005534801561001957600080fd5b5033600260006101000a81548173ffffffffffffffffffffffffffffffffffffffff021916908373ffffffffffffffffffffffffffffffffffffffff160217905550600054600160003373ffffffffffffffffffffffffffffffffffffffff1673ffffffffffffffffffffffffffffffffffffffff1681526020019081526020016000208190555061602b80620000b16000396000f3fe608060405234801561001057600080fd5b50600436106101e55760003560e01c806380eb7dab1161010f578063b2cb09a3116100a2578063e9e3092711610071578063e9e309271461065c578063f0a47f781461067a578063f198bc12146106aa578063f97563d5146106da576101e5565b8063b2cb09a3146105ae578063b31f5946146105de578063c4e41b221461060e578063cb0c109e1461062c576101e5565b8063995e4339116100de578063995e4339146104ee578063a6c807a91461051e578063a8afe9d61461054e578063a9059cbb1461057e576101e5565b806380eb7dab146104405780638da5cb5b146104705780638f5b9b2e1461048e5780639594a213146104be576101e5565b80635e8b80911161018757806370f5cf491161015657806370f5cf49146103a457806378c4798c146103d4578063795994d9146104045780637b61c32014610422576101e5565b80635e8b8091146102f657806368b572b9146103265780636c02a9311461035657806370a0823114610374576101e5565b80634198cb3f116101c35780634198cb3f146102445780634e043f0d1461027857806350bce7751461029657806352ff6846146102c6576101e5565b806309029aac146101ea5780632e2294b014610208578063313ce56714610226575b600080fd5b6101f261070b565b6040516101ff9190615a06565b60405180910390f35b610210610ad7565b60405161021d9190615bfc565b60405180910390f35b61022e610ae4565b60405161023b9190615c71565b60405180910390f35b61025e60048036036102599190810190614d38565b610ae9565b60405161026f959493929190615c17565b60405180910390f35b610280610be4565b60405161028d9190615bfc565b60405180910390f35b6102b060048036036102ab9190810190614d38565b610bf1565b6040516102bd91906159e4565b60405180910390f35b6102e060048036036102db9190810190614c18565b610f1c565b6040516102ed9190615a28565b60405180910390f35b610310600480360361030b9190810190614c41565b6110c9565b60405161031d9190615a28565b60405180910390f35b610340600480360361033b9190810190614cd1565b611228565b60405161034d9190615bfc565b60405180910390f35b61035e611445565b60405161036b9190615a43565b60405180910390f35b61038e60048036036103899190810190614c18565b61147e565b60405161039b9190615bfc565b60405180910390f35b6103be60048036036103b99190810190614d38565b6114c7565b6040516103cb9190615bfc565b60405180910390f35b6103ee60048036036103e99190810190614c18565b611786565b6040516103fb9190615a28565b60405180910390f35b61040c611933565b60405161041991906159a0565b60405180910390f35b61042a612039565b6040516104379190615a43565b60405180910390f35b61045a60048036036104559190810190614d38565b612072565b6040516104679190615a28565b60405180910390f35b610478612223565b6040516104859190615963565b60405180910390f35b6104a860048036036104a39190810190614c41565b612249565b6040516104b59190615a28565b60405180910390f35b6104d860048036036104d39190810190614d9d565b6123a8565b6040516104e59190615a28565b60405180910390f35b61050860048036036105039190810190614d38565b61295a565b60405161051591906159c2565b60405180910390f35b61053860048036036105339190810190614c18565b612d53565b6040516105459190615a43565b60405180910390f35b61056860048036036105639190810190614d61565b612e03565b6040516105759190615a28565b60405180910390f35b61059860048036036105939190810190614c95565b613027565b6040516105a59190615a28565b60405180910390f35b6105c860048036036105c39190810190614d38565b61344a565b6040516105d59190615963565b60405180910390f35b6105f860048036036105f39190810190614d38565b613486565b604051610605919061597e565b60405180910390f35b610616613653565b6040516106239190615bfc565b60405180910390f35b61064660048036036106419190810190614dec565b61365c565b6040516106539190615a28565b60405180910390f35b610664613a02565b6040516106719190615a06565b60405180910390f35b610694600480360361068f9190810190614c18565b613dce565b6040516106a19190615a43565b60405180910390f35b6106c460048036036106bf9190810190614d38565b613e7e565b6040516106d19190615963565b60405180910390f35b6106f460048036036106ef9190810190614d38565b613eba565b604051610702929190615a65565b60405180910390f35b6060600260009054906101000a900473ffffffffffffffffffffffffffffffffffffffff1673ffffffffffffffffffffffffffffffffffffffff163373ffffffffffffffffffffffffffffffffffffffff161461079d576040517f08c379a000000000000000000000000000000000000000000000000000000000815260040161079490615b9c565b60405180910390fd5b6060600360003373ffffffffffffffffffffffffffffffffffffffff1673ffffffffffffffffffffffffffffffffffffffff1681526020019081526020016000208054600181600116156101000203166002900480601f0160208091040260200160405190810160405280929190818152602001828054600181600116156101000203166002900480156108725780601f1061084757610100808354040283529160200191610872565b820191906000526020600020905b81548152906001019060200180831161085557829003601f168201915b505050505090506000815114156108be576040517f08c379a00000000000000000000000000000000000000000000000000000000081526004016108b590615b1c565b60405180910390fd5b60606004805490506040519080825280602002602001820160405280156108ff57816020015b6108ec614745565b8152602001906001900390816108e45790505b50905060008090505b600480549050811015610ace576004818154811061092257fe5b9060005260206000200160009054906101000a900473ffffffffffffffffffffffffffffffffffffffff1682828151811061095957fe5b60200260200101516000019073ffffffffffffffffffffffffffffffffffffffff16908173ffffffffffffffffffffffffffffffffffffffff168152505060036000600483815481106109a857fe5b9060005260206000200160009054906101000a900473ffffffffffffffffffffffffffffffffffffffff1673ffffffffffffffffffffffffffffffffffffffff1673ffffffffffffffffffffffffffffffffffffffff1681526020019081526020016000208054600181600116156101000203166002900480601f016020809104026020016040519081016040528092919081815260200182805460018160011615610100020316600290048015610aa15780601f10610a7657610100808354040283529160200191610aa1565b820191906000526020600020905b815481529060010190602001808311610a8457829003601f168201915b5050505050828281518110610ab257fe5b6020026020010151602001819052508080600101915050610908565b50809250505090565b6000600480549050905090565b600081565b60078181548110610af657fe5b9060005260206000209060090201600091509050806000015490806001018054600181600116156101000203166002900480601f016020809104026020016040519081016040528092919081815260200182805460018160011615610100020316600290048015610ba85780601f10610b7d57610100808354040283529160200191610ba8565b820191906000526020600020905b815481529060010190602001808311610b8b57829003601f168201915b5050505050908060020160009054906101000a900473ffffffffffffffffffffffffffffffffffffffff16908060030154908060040154905085565b6000600680549050905090565b606080600360003373ffffffffffffffffffffffffffffffffffffffff1673ffffffffffffffffffffffffffffffffffffffff1681526020019081526020016000208054600181600116156101000203166002900480601f016020809104026020016040519081016040528092919081815260200182805460018160011615610100020316600290048015610cc75780601f10610c9c57610100808354040283529160200191610cc7565b820191906000526020600020905b815481529060010190602001808311610caa57829003601f168201915b50505050509050600081511415610d13576040517f08c379a0000000000000000000000000000000000000000000000000000000008152600401610d0a90615b1c565b60405180910390fd5b60078381548110610d2057fe5b9060005260206000209060090201600501805480602002602001604051908101604052809291908181526020016000905b82821015610f1057838290600052602060002090600702016040518060800160405290816000820154815260200160018201548152602001600282018054600181600116156101000203166002900480601f016020809104026020016040519081016040528092919081815260200182805460018160011615610100020316600290048015610e215780601f10610df657610100808354040283529160200191610e21565b820191906000526020600020905b815481529060010190602001808311610e0457829003601f168201915b5050505050815260200160038201600480602002604051908101604052809291906000905b82821015610ef9578382018054600181600116156101000203166002900480601f016020809104026020016040519081016040528092919081815260200182805460018160011615610100020316600290048015610ee55780601f10610eba57610100808354040283529160200191610ee5565b820191906000526020600020905b815481529060010190602001808311610ec857829003601f168201915b505050505081526020019060010190610e46565b505050508152505081526020019060010190610d51565b50505050915050919050565b6000600260009054906101000a900473ffffffffffffffffffffffffffffffffffffffff1673ffffffffffffffffffffffffffffffffffffffff163373ffffffffffffffffffffffffffffffffffffffff1614610fae576040517f08c379a0000000000000000000000000000000000000000000000000000000008152600401610fa590615b9c565b60405180910390fd5b600360008373ffffffffffffffffffffffffffffffffffffffff1673ffffffffffffffffffffffffffffffffffffffff1681526020019081526020016000206000610ff99190614775565b60008090505b6004805490508110156110bf578273ffffffffffffffffffffffffffffffffffffffff166004828154811061103057fe5b9060005260206000200160009054906101000a900473ffffffffffffffffffffffffffffffffffffffff1673ffffffffffffffffffffffffffffffffffffffff1614156110b2576004818154811061108457fe5b9060005260206000200160006101000a81549073ffffffffffffffffffffffffffffffffffffffff02191690555b8080600101915050610fff565b5060019050919050565b6000600260009054906101000a900473ffffffffffffffffffffffffffffffffffffffff1673ffffffffffffffffffffffffffffffffffffffff163373ffffffffffffffffffffffffffffffffffffffff161461115b576040517f08c379a000000000000000000000000000000000000000000000000000000000815260040161115290615b9c565b60405180910390fd5b81600560008573ffffffffffffffffffffffffffffffffffffffff1673ffffffffffffffffffffffffffffffffffffffff16815260200190815260200160002090805190602001906111ae9291906147bd565b506000600680548091906001016111c5919061483d565b905083600682815481106111d557fe5b9060005260206000200160006101000a81548173ffffffffffffffffffffffffffffffffffffffff021916908373ffffffffffffffffffffffffffffffffffffffff160217905550600191505092915050565b60006060600360003373ffffffffffffffffffffffffffffffffffffffff1673ffffffffffffffffffffffffffffffffffffffff1681526020019081526020016000208054600181600116156101000203166002900480601f0160208091040260200160405190810160405280929190818152602001828054600181600116156101000203166002900480156112ff5780601f106112d4576101008083540402835291602001916112ff565b820191906000526020600020905b8154815290600101906020018083116112e257829003601f168201915b5050505050905060008151141561134b576040517f08c379a000000000000000000000000000000000000000000000000000000000815260040161134290615b1c565b60405180910390fd5b6000600780548091906001016113619190614869565b9050856007828154811061137157fe5b906000526020600020906009020160010190805190602001906113959291906147bd565b5033600782815481106113a457fe5b906000526020600020906009020160020160006101000a81548173ffffffffffffffffffffffffffffffffffffffff021916908373ffffffffffffffffffffffffffffffffffffffff160217905550846007828154811061140157fe5b906000526020600020906009020160040181905550836007828154811061142457fe5b90600052602060002090600902016003018190555080925050509392505050565b6040518060400160405280600f81526020017f4f6e6c696e654578616d546f6b656e000000000000000000000000000000000081525081565b6000600160008373ffffffffffffffffffffffffffffffffffffffff1673ffffffffffffffffffffffffffffffffffffffff168152602001908152602001600020549050919050565b600081600781815481106114d757fe5b906000526020600020906009020160070160003373ffffffffffffffffffffffffffffffffffffffff1673ffffffffffffffffffffffffffffffffffffffff16815260200190815260200160002060009054906101000a900460ff16611572576040517f08c379a000000000000000000000000000000000000000000000000000000000815260040161156990615a9c565b60405180910390fd5b600080905060008090506000809050600080905060008090505b6007888154811061159957fe5b906000526020600020906009020160080160003373ffffffffffffffffffffffffffffffffffffffff1673ffffffffffffffffffffffffffffffffffffffff1681526020019081526020016000208054905081101561177857600788815481106115ff57fe5b906000526020600020906009020160080160003373ffffffffffffffffffffffffffffffffffffffff1673ffffffffffffffffffffffffffffffffffffffff168152602001908152602001600020818154811061165857fe5b90600052602060002090600302016000015493506007888154811061167957fe5b906000526020600020906009020160080160003373ffffffffffffffffffffffffffffffffffffffff1673ffffffffffffffffffffffffffffffffffffffff16815260200190815260200160002081815481106116d257fe5b9060005260206000209060030201600101549250600788815481106116f357fe5b9060005260206000209060090201600501848154811061170f57fe5b90600052602060002090600702016001015491508183141561176b576007888154811061173857fe5b9060005260206000209060090201600501848154811061175457fe5b906000526020600020906007020160000154850194505b808060010191505061158c565b508395505050505050919050565b6000600260009054906101000a900473ffffffffffffffffffffffffffffffffffffffff1673ffffffffffffffffffffffffffffffffffffffff163373ffffffffffffffffffffffffffffffffffffffff1614611818576040517f08c379a000000000000000000000000000000000000000000000000000000000815260040161180f90615b9c565b60405180910390fd5b600560008373ffffffffffffffffffffffffffffffffffffffff1673ffffffffffffffffffffffffffffffffffffffff16815260200190815260200160002060006118639190614775565b60008090505b600680549050811015611929578273ffffffffffffffffffffffffffffffffffffffff166006828154811061189a57fe5b9060005260206000200160009054906101000a900473ffffffffffffffffffffffffffffffffffffffff1673ffffffffffffffffffffffffffffffffffffffff16141561191c57600681815481106118ee57fe5b9060005260206000200160006101000a81549073ffffffffffffffffffffffffffffffffffffffff02191690555b8080600101915050611869565b5060019050919050565b6060600260009054906101000a900473ffffffffffffffffffffffffffffffffffffffff1673ffffffffffffffffffffffffffffffffffffffff163373ffffffffffffffffffffffffffffffffffffffff16146119c5576040517f08c379a00000000000000000000000000000000000000000000000000000000081526004016119bc90615b9c565b60405180910390fd5b6060600360003373ffffffffffffffffffffffffffffffffffffffff1673ffffffffffffffffffffffffffffffffffffffff1681526020019081526020016000208054600181600116156101000203166002900480601f016020809104026020016040519081016040528092919081815260200182805460018160011615610100020316600290048015611a9a5780601f10611a6f57610100808354040283529160200191611a9a565b820191906000526020600020905b815481529060010190602001808311611a7d57829003601f168201915b50505050509050600081511415611ae6576040517f08c379a0000000000000000000000000000000000000000000000000000000008152600401611add90615b1c565b60405180910390fd5b6060600780549050604051908082528060200260200182016040528015611b2757816020015b611b1461489b565b815260200190600190039081611b0c5790505b50905060008090505b6007805490508110156120305760078181548110611b4a57fe5b90600052602060002090600902016001018054600181600116156101000203166002900480601f016020809104026020016040519081016040528092919081815260200182805460018160011615610100020316600290048015611bef5780601f10611bc457610100808354040283529160200191611bef565b820191906000526020600020905b815481529060010190602001808311611bd257829003601f168201915b5050505050828281518110611c0057fe5b60200260200101516020018190525060078181548110611c1c57fe5b906000526020600020906009020160020160009054906101000a900473ffffffffffffffffffffffffffffffffffffffff16828281518110611c5a57fe5b60200260200101516040019073ffffffffffffffffffffffffffffffffffffffff16908173ffffffffffffffffffffffffffffffffffffffff168152505060078181548110611ca557fe5b906000526020600020906009020160040154828281518110611cc357fe5b6020026020010151608001818152505060078181548110611ce057fe5b906000526020600020906009020160030154828281518110611cfe57fe5b6020026020010151606001818152505060078181548110611d1b57fe5b906000526020600020906009020160000154828281518110611d3957fe5b6020026020010151600001818152505060078181548110611d5657fe5b9060005260206000209060090201600501805480602002602001604051908101604052809291908181526020016000905b82821015611f4657838290600052602060002090600702016040518060800160405290816000820154815260200160018201548152602001600282018054600181600116156101000203166002900480601f016020809104026020016040519081016040528092919081815260200182805460018160011615610100020316600290048015611e575780601f10611e2c57610100808354040283529160200191611e57565b820191906000526020600020905b815481529060010190602001808311611e3a57829003601f168201915b5050505050815260200160038201600480602002604051908101604052809291906000905b82821015611f2f578382018054600181600116156101000203166002900480601f016020809104026020016040519081016040528092919081815260200182805460018160011615610100020316600290048015611f1b5780601f10611ef057610100808354040283529160200191611f1b565b820191906000526020600020905b815481529060010190602001808311611efe57829003601f168201915b505050505081526020019060010190611e7c565b505050508152505081526020019060010190611d87565b50505050828281518110611f5657fe5b602002602001015160a0018190525060078181548110611f7257fe5b906000526020600020906009020160060180548060200260200160405190810160405280929190818152602001828054801561200357602002820191906000526020600020905b8160009054906101000a900473ffffffffffffffffffffffffffffffffffffffff1673ffffffffffffffffffffffffffffffffffffffff1681526020019060010190808311611fb9575b505050505082828151811061201457fe5b602002602001015160c001819052508080600101915050611b30565b50809250505090565b6040518060400160405280600381526020017f4f4554000000000000000000000000000000000000000000000000000000000081525081565b60006060600360003373ffffffffffffffffffffffffffffffffffffffff1673ffffffffffffffffffffffffffffffffffffffff1681526020019081526020016000208054600181600116156101000203166002900480601f0160208091040260200160405190810160405280929190818152602001828054600181600116156101000203166002900480156121495780601f1061211e57610100808354040283529160200191612149565b820191906000526020600020905b81548152906001019060200180831161212c57829003601f168201915b50505050509050600081511415612195576040517f08c379a000000000000000000000000000000000000000000000000000000000815260040161218c90615b1c565b60405180910390fd5b6000600784815481106121a457fe5b906000526020600020906009020160000154146121f6576040517f08c379a00000000000000000000000000000000000000000000000000000000081526004016121ed90615b3c565b60405180910390fd5b426007848154811061220457fe5b9060005260206000209060090201600001819055506001915050919050565b600260009054906101000a900473ffffffffffffffffffffffffffffffffffffffff1681565b6000600260009054906101000a900473ffffffffffffffffffffffffffffffffffffffff1673ffffffffffffffffffffffffffffffffffffffff163373ffffffffffffffffffffffffffffffffffffffff16146122db576040517f08c379a00000000000000000000000000000000000000000000000000000000081526004016122d290615b9c565b60405180910390fd5b81600360008573ffffffffffffffffffffffffffffffffffffffff1673ffffffffffffffffffffffffffffffffffffffff168152602001908152602001600020908051906020019061232e9291906147bd565b50600060048054809190600101612345919061483d565b9050836004828154811061235557fe5b9060005260206000200160006101000a81548173ffffffffffffffffffffffffffffffffffffffff021916908373ffffffffffffffffffffffffffffffffffffffff160217905550600191505092915050565b600083600781815481106123b857fe5b906000526020600020906009020160070160003373ffffffffffffffffffffffffffffffffffffffff1673ffffffffffffffffffffffffffffffffffffffff16815260200190815260200160002060009054906101000a900460ff16612453576040517f08c379a000000000000000000000000000000000000000000000000000000000815260040161244a90615a9c565b60405180910390fd5b60006007868154811061246257fe5b906000526020600020906009020160000154116124b4576040517f08c379a00000000000000000000000000000000000000000000000000000000081526004016124ab90615b5c565b60405180910390fd5b42600786815481106124c257fe5b906000526020600020906009020160030154600787815481106124e157fe5b906000526020600020906009020160000154011115612535576040517f08c379a000000000000000000000000000000000000000000000000000000000815260040161252c90615bbc565b60405180910390fd5b60008090505b6007868154811061254857fe5b906000526020600020906009020160080160003373ffffffffffffffffffffffffffffffffffffffff1673ffffffffffffffffffffffffffffffffffffffff168152602001908152602001600020805490508110156126685784600787815481106125af57fe5b906000526020600020906009020160080160003373ffffffffffffffffffffffffffffffffffffffff1673ffffffffffffffffffffffffffffffffffffffff168152602001908152602001600020828154811061260857fe5b906000526020600020906003020160000154141561265b576040517f08c379a000000000000000000000000000000000000000000000000000000000815260040161265290615bdc565b60405180910390fd5b808060010191505061253b565b5060006007868154811061267857fe5b906000526020600020906009020160080160003373ffffffffffffffffffffffffffffffffffffffff1673ffffffffffffffffffffffffffffffffffffffff16815260200190815260200160002080548091906001016126d891906148ee565b905084600787815481106126e857fe5b906000526020600020906009020160080160003373ffffffffffffffffffffffffffffffffffffffff1673ffffffffffffffffffffffffffffffffffffffff168152602001908152602001600020828154811061274157fe5b906000526020600020906003020160000181905550836007878154811061276457fe5b906000526020600020906009020160080160003373ffffffffffffffffffffffffffffffffffffffff1673ffffffffffffffffffffffffffffffffffffffff16815260200190815260200160002082815481106127bd57fe5b90600052602060002090600302016001018190555083600787815481106127e057fe5b906000526020600020906009020160050186815481106127fc57fe5b90600052602060002090600702016001015414156128cf576007868154811061282157fe5b9060005260206000209060090201600501858154811061283d57fe5b9060005260206000209060070201600001546007878154811061285c57fe5b906000526020600020906009020160080160003373ffffffffffffffffffffffffffffffffffffffff1673ffffffffffffffffffffffffffffffffffffffff16815260200190815260200160002082815481106128b557fe5b90600052602060002090600302016002018190555061294d565b6000600787815481106128de57fe5b906000526020600020906009020160080160003373ffffffffffffffffffffffffffffffffffffffff1673ffffffffffffffffffffffffffffffffffffffff168152602001908152602001600020828154811061293757fe5b9060005260206000209060030201600201819055505b6001925050509392505050565b6060600260009054906101000a900473ffffffffffffffffffffffffffffffffffffffff1673ffffffffffffffffffffffffffffffffffffffff163373ffffffffffffffffffffffffffffffffffffffff16146129ec576040517f08c379a00000000000000000000000000000000000000000000000000000000081526004016129e390615b9c565b60405180910390fd5b6060600360003373ffffffffffffffffffffffffffffffffffffffff1673ffffffffffffffffffffffffffffffffffffffff1681526020019081526020016000208054600181600116156101000203166002900480601f016020809104026020016040519081016040528092919081815260200182805460018160011615610100020316600290048015612ac15780601f10612a9657610100808354040283529160200191612ac1565b820191906000526020600020905b815481529060010190602001808311612aa457829003601f168201915b50505050509050600081511415612b0d576040517f08c379a0000000000000000000000000000000000000000000000000000000008152600401612b0490615b1c565b60405180910390fd5b606060078481548110612b1c57fe5b906000526020600020906009020160060180549050604051908082528060200260200182016040528015612b6a57816020015b612b57614920565b815260200190600190039081612b4f5790505b50905060008090505b60078581548110612b8057fe5b906000526020600020906009020160060180549050811015612d485760078581548110612ba957fe5b90600052602060002090600902016006018181548110612bc557fe5b9060005260206000200160009054906101000a900473ffffffffffffffffffffffffffffffffffffffff16828281518110612bfc57fe5b60200260200101516000019073ffffffffffffffffffffffffffffffffffffffff16908173ffffffffffffffffffffffffffffffffffffffff168152505060078581548110612c4757fe5b90600052602060002090600902016008016000838381518110612c6657fe5b60200260200101516000015173ffffffffffffffffffffffffffffffffffffffff1673ffffffffffffffffffffffffffffffffffffffff168152602001908152602001600020805480602002602001604051908101604052809291908181526020016000905b82821015612d1c5783829060005260206000209060030201604051806060016040529081600082015481526020016001820154815260200160028201548152505081526020019060010190612ccc565b50505050828281518110612d2c57fe5b6020026020010151602001819052508080600101915050612b73565b508092505050919050565b60056020528060005260406000206000915090508054600181600116156101000203166002900480601f016020809104026020016040519081016040528092919081815260200182805460018160011615610100020316600290048015612dfb5780601f10612dd057610100808354040283529160200191612dfb565b820191906000526020600020905b815481529060010190602001808311612dde57829003601f168201915b505050505081565b60006060600360003373ffffffffffffffffffffffffffffffffffffffff1673ffffffffffffffffffffffffffffffffffffffff1681526020019081526020016000208054600181600116156101000203166002900480601f016020809104026020016040519081016040528092919081815260200182805460018160011615610100020316600290048015612eda5780601f10612eaf57610100808354040283529160200191612eda565b820191906000526020600020905b815481529060010190602001808311612ebd57829003601f168201915b50505050509050600081511415612f26576040517f08c379a0000000000000000000000000000000000000000000000000000000008152600401612f1d90615b1c565b60405180910390fd5b600160078581548110612f3557fe5b906000526020600020906009020160070160008573ffffffffffffffffffffffffffffffffffffffff1673ffffffffffffffffffffffffffffffffffffffff16815260200190815260200160002060006101000a81548160ff02191690831515021790555060078481548110612fa757fe5b90600052602060002090600902016006018390806001815401808255809150509060018203906000526020600020016000909192909190916101000a81548173ffffffffffffffffffffffffffffffffffffffff021916908373ffffffffffffffffffffffffffffffffffffffff16021790555050600191505092915050565b60006060600360003373ffffffffffffffffffffffffffffffffffffffff1673ffffffffffffffffffffffffffffffffffffffff1681526020019081526020016000208054600181600116156101000203166002900480601f0160208091040260200160405190810160405280929190818152602001828054600181600116156101000203166002900480156130fe5780601f106130d3576101008083540402835291602001916130fe565b820191906000526020600020905b8154815290600101906020018083116130e157829003601f168201915b5050505050905060008151141561314a576040517f08c379a000000000000000000000000000000000000000000000000000000000815260040161314190615b1c565b60405180910390fd5b6060600560003373ffffffffffffffffffffffffffffffffffffffff1673ffffffffffffffffffffffffffffffffffffffff1681526020019081526020016000208054600181600116156101000203166002900480601f01602080910402602001604051908101604052809291908181526020018280546001816001161561010002031660029004801561321f5780601f106131f45761010080835404028352916020019161321f565b820191906000526020600020905b81548152906001019060200180831161320257829003601f168201915b5050505050905060008151141561326b576040517f08c379a000000000000000000000000000000000000000000000000000000000815260040161326290615b7c565b60405180910390fd5b6132df8460016000600260009054906101000a900473ffffffffffffffffffffffffffffffffffffffff1673ffffffffffffffffffffffffffffffffffffffff1673ffffffffffffffffffffffffffffffffffffffff1681526020019081526020016000205461471290919063ffffffff16565b60016000600260009054906101000a900473ffffffffffffffffffffffffffffffffffffffff1673ffffffffffffffffffffffffffffffffffffffff1673ffffffffffffffffffffffffffffffffffffffff1681526020019081526020016000208190555061339684600160008873ffffffffffffffffffffffffffffffffffffffff1673ffffffffffffffffffffffffffffffffffffffff1681526020019081526020016000205461472990919063ffffffff16565b600160008773ffffffffffffffffffffffffffffffffffffffff1673ffffffffffffffffffffffffffffffffffffffff168152602001908152602001600020819055508473ffffffffffffffffffffffffffffffffffffffff163373ffffffffffffffffffffffffffffffffffffffff167fddf252ad1be2c89b69c2b068fc378daa952ba7f163c4a11628f55a4df523b3ef866040516134369190615bfc565b60405180910390a360019250505092915050565b6004818154811061345757fe5b906000526020600020016000915054906101000a900473ffffffffffffffffffffffffffffffffffffffff1681565b606080600360003373ffffffffffffffffffffffffffffffffffffffff1673ffffffffffffffffffffffffffffffffffffffff1681526020019081526020016000208054600181600116156101000203166002900480601f01602080910402602001604051908101604052809291908181526020018280546001816001161561010002031660029004801561355c5780601f106135315761010080835404028352916020019161355c565b820191906000526020600020905b81548152906001019060200180831161353f57829003601f168201915b505050505090506000815114156135a8576040517f08c379a000000000000000000000000000000000000000000000000000000000815260040161359f90615b1c565b60405180910390fd5b600783815481106135b557fe5b906000526020600020906009020160060180548060200260200160405190810160405280929190818152602001828054801561364657602002820191906000526020600020905b8160009054906101000a900473ffffffffffffffffffffffffffffffffffffffff1673ffffffffffffffffffffffffffffffffffffffff16815260200190600101908083116135fc575b5050505050915050919050565b60008054905090565b60006060600360003373ffffffffffffffffffffffffffffffffffffffff1673ffffffffffffffffffffffffffffffffffffffff1681526020019081526020016000208054600181600116156101000203166002900480601f0160208091040260200160405190810160405280929190818152602001828054600181600116156101000203166002900480156137335780601f1061370857610100808354040283529160200191613733565b820191906000526020600020905b81548152906001019060200180831161371657829003601f168201915b5050505050905060008151141561377f576040517f08c379a000000000000000000000000000000000000000000000000000000000815260040161377690615b1c565b60405180910390fd5b600060078b8154811061378e57fe5b906000526020600020906009020160050180548091906001016137b19190614950565b90508960078c815481106137c157fe5b906000526020600020906009020160050182815481106137dd57fe5b9060005260206000209060070201600001819055508860078c8154811061380057fe5b9060005260206000209060090201600501828154811061381c57fe5b9060005260206000209060070201600101819055508760078c8154811061383f57fe5b9060005260206000209060090201600501828154811061385b57fe5b9060005260206000209060070201600201908051906020019061387f9291906147bd565b508660078c8154811061388e57fe5b906000526020600020906009020160050182815481106138aa57fe5b90600052602060002090600702016003016000600481106138c757fe5b0190805190602001906138db9291906147bd565b508560078c815481106138ea57fe5b9060005260206000209060090201600501828154811061390657fe5b906000526020600020906007020160030160016004811061392357fe5b0190805190602001906139379291906147bd565b508460078c8154811061394657fe5b9060005260206000209060090201600501828154811061396257fe5b906000526020600020906007020160030160026004811061397f57fe5b0190805190602001906139939291906147bd565b508360078c815481106139a257fe5b906000526020600020906009020160050182815481106139be57fe5b90600052602060002090600702016003016003600481106139db57fe5b0190805190602001906139ef9291906147bd565b5060019250505098975050505050505050565b6060600260009054906101000a900473ffffffffffffffffffffffffffffffffffffffff1673ffffffffffffffffffffffffffffffffffffffff163373ffffffffffffffffffffffffffffffffffffffff1614613a94576040517f08c379a0000000000000000000000000000000000000000000000000000000008152600401613a8b90615b9c565b60405180910390fd5b6060600360003373ffffffffffffffffffffffffffffffffffffffff1673ffffffffffffffffffffffffffffffffffffffff1681526020019081526020016000208054600181600116156101000203166002900480601f016020809104026020016040519081016040528092919081815260200182805460018160011615610100020316600290048015613b695780601f10613b3e57610100808354040283529160200191613b69565b820191906000526020600020905b815481529060010190602001808311613b4c57829003601f168201915b50505050509050600081511415613bb5576040517f08c379a0000000000000000000000000000000000000000000000000000000008152600401613bac90615b1c565b60405180910390fd5b6060600680549050604051908082528060200260200182016040528015613bf657816020015b613be3614745565b815260200190600190039081613bdb5790505b50905060008090505b600680549050811015613dc55760068181548110613c1957fe5b9060005260206000200160009054906101000a900473ffffffffffffffffffffffffffffffffffffffff16828281518110613c5057fe5b60200260200101516000019073ffffffffffffffffffffffffffffffffffffffff16908173ffffffffffffffffffffffffffffffffffffffff16815250506005600060068381548110613c9f57fe5b9060005260206000200160009054906101000a900473ffffffffffffffffffffffffffffffffffffffff1673ffffffffffffffffffffffffffffffffffffffff1673ffffffffffffffffffffffffffffffffffffffff1681526020019081526020016000208054600181600116156101000203166002900480601f016020809104026020016040519081016040528092919081815260200182805460018160011615610100020316600290048015613d985780601f10613d6d57610100808354040283529160200191613d98565b820191906000526020600020905b815481529060010190602001808311613d7b57829003601f168201915b5050505050828281518110613da957fe5b6020026020010151602001819052508080600101915050613bff565b50809250505090565b60036020528060005260406000206000915090508054600181600116156101000203166002900480601f016020809104026020016040519081016040528092919081815260200182805460018160011615610100020316600290048015613e765780601f10613e4b57610100808354040283529160200191613e76565b820191906000526020600020905b815481529060010190602001808311613e5957829003601f168201915b505050505081565b60068181548110613e8b57fe5b906000526020600020016000915054906101000a900473ffffffffffffffffffffffffffffffffffffffff1681565b60608060008310158015613ed2575060078054905083105b613f11576040517f08c379a0000000000000000000000000000000000000000000000000000000008152600401613f0890615afc565b60405180910390fd5b60078381548110613f1e57fe5b906000526020600020906009020160070160003373ffffffffffffffffffffffffffffffffffffffff1673ffffffffffffffffffffffffffffffffffffffff16815260200190815260200160002060009054906101000a900460ff16613fb9576040517f08c379a0000000000000000000000000000000000000000000000000000000008152600401613fb090615adc565b60405180910390fd5b600060078481548110613fc857fe5b9060005260206000209060090201600001541161401a576040517f08c379a000000000000000000000000000000000000000000000000000000000815260040161401190615abc565b60405180910390fd5b60606007848154811061402957fe5b90600052602060002090600902016001018054600181600116156101000203166002900480601f0160208091040260200160405190810160405280929190818152602001828054600181600116156101000203166002900480156140ce5780601f106140a3576101008083540402835291602001916140ce565b820191906000526020600020905b8154815290600101906020018083116140b157829003601f168201915b505050505090506060600785815481106140e457fe5b90600052602060002090600902016005018054905060405190808252806020026020018201604052801561413257816020015b61411f614982565b8152602001906001900390816141175790505b50905060008090505b6007868154811061414857fe5b906000526020600020906009020160050180549050811015614704576007868154811061417157fe5b9060005260206000209060090201600501818154811061418d57fe5b9060005260206000209060070201600001548282815181106141ab57fe5b6020026020010151600001818152505060098282815181106141c957fe5b60200260200101516020018181525050600786815481106141e657fe5b9060005260206000209060090201600501818154811061420257fe5b90600052602060002090600702016002018054600181600116156101000203166002900480601f0160208091040260200160405190810160405280929190818152602001828054600181600116156101000203166002900480156142a75780601f1061427c576101008083540402835291602001916142a7565b820191906000526020600020905b81548152906001019060200180831161428a57829003601f168201915b50505050508282815181106142b857fe5b602002602001015160400181905250600786815481106142d457fe5b906000526020600020906009020160050181815481106142f057fe5b906000526020600020906007020160030160006004811061430d57fe5b018054600181600116156101000203166002900480601f0160208091040260200160405190810160405280929190818152602001828054600181600116156101000203166002900480156143a25780601f10614377576101008083540402835291602001916143a2565b820191906000526020600020905b81548152906001019060200180831161438557829003601f168201915b50505050508282815181106143b357fe5b6020026020010151606001516000600481106143cb57fe5b6020020181905250600786815481106143e057fe5b906000526020600020906009020160050181815481106143fc57fe5b906000526020600020906007020160030160016004811061441957fe5b018054600181600116156101000203166002900480601f0160208091040260200160405190810160405280929190818152602001828054600181600116156101000203166002900480156144ae5780601f10614483576101008083540402835291602001916144ae565b820191906000526020600020905b81548152906001019060200180831161449157829003601f168201915b50505050508282815181106144bf57fe5b6020026020010151606001516001600481106144d757fe5b6020020181905250600786815481106144ec57fe5b9060005260206000209060090201600501818154811061450857fe5b906000526020600020906007020160030160026004811061452557fe5b018054600181600116156101000203166002900480601f0160208091040260200160405190810160405280929190818152602001828054600181600116156101000203166002900480156145ba5780601f1061458f576101008083540402835291602001916145ba565b820191906000526020600020905b81548152906001019060200180831161459d57829003601f168201915b50505050508282815181106145cb57fe5b6020026020010151606001516002600481106145e357fe5b6020020181905250600786815481106145f857fe5b9060005260206000209060090201600501818154811061461457fe5b906000526020600020906007020160030160036004811061463157fe5b018054600181600116156101000203166002900480601f0160208091040260200160405190810160405280929190818152602001828054600181600116156101000203166002900480156146c65780601f1061469b576101008083540402835291602001916146c6565b820191906000526020600020905b8154815290600101906020018083116146a957829003601f168201915b50505050508282815181106146d757fe5b6020026020010151606001516003600481106146ef57fe5b6020020181905250808060010191505061413b565b508181935093505050915091565b60008282111561471e57fe5b818303905092915050565b60008082840190508381101561473b57fe5b8091505092915050565b6040518060400160405280600073ffffffffffffffffffffffffffffffffffffffff168152602001606081525090565b50805460018160011615610100020316600290046000825580601f1061479b57506147ba565b601f0160209004906000526020600020908101906147b991906149b0565b5b50565b828054600181600116156101000203166002900490600052602060002090601f016020900481019282601f106147fe57805160ff191683800117855561482c565b8280016001018555821561482c579182015b8281111561482b578251825591602001919060010190614810565b5b50905061483991906149b0565b5090565b8154818355818111156148645781836000526020600020918201910161486391906149b0565b5b505050565b8154818355818111156148965760090281600902836000526020600020918201910161489591906149d5565b5b505050565b6040518060e001604052806000815260200160608152602001600073ffffffffffffffffffffffffffffffffffffffff168152602001600081526020016000815260200160608152602001606081525090565b81548183558181111561491b5760030281600302836000526020600020918201910161491a9190614a63565b5b505050565b6040518060400160405280600073ffffffffffffffffffffffffffffffffffffffff168152602001606081525090565b81548183558181111561497d5760070281600702836000526020600020918201910161497c9190614a9a565b5b505050565b60405180608001604052806000815260200160008152602001606081526020016149aa614ae9565b81525090565b6149d291905b808211156149ce5760008160009055506001016149b6565b5090565b90565b614a6091905b80821115614a5c576000808201600090556001820160006149fc9190614775565b6002820160006101000a81549073ffffffffffffffffffffffffffffffffffffffff021916905560038201600090556004820160009055600582016000614a439190614b10565b600682016000614a539190614b34565b506009016149db565b5090565b90565b614a9791905b80821115614a93576000808201600090556001820160009055600282016000905550600301614a69565b5090565b90565b614ae691905b80821115614ae2576000808201600090556001820160009055600282016000614ac99190614775565b600382016000614ad99190614b55565b50600701614aa0565b5090565b90565b60405180608001604052806004905b6060815260200190600190039081614af85790505090565b5080546000825560070290600052602060002090810190614b319190614a9a565b50565b5080546000825590600052602060002090810190614b5291906149b0565b50565b5060008181614b649190614775565b5060010160008181614b769190614775565b5060010160008181614b889190614775565b506001016000614b989190614775565b565b600081359050614ba981615fba565b92915050565b600082601f830112614bc057600080fd5b8135614bd3614bce82615cb9565b615c8c565b91508082526020830160208301858383011115614bef57600080fd5b614bfa838284615f67565b50505092915050565b600081359050614c1281615fd1565b92915050565b600060208284031215614c2a57600080fd5b6000614c3884828501614b9a565b91505092915050565b60008060408385031215614c5457600080fd5b6000614c6285828601614b9a565b925050602083013567ffffffffffffffff811115614c7f57600080fd5b614c8b85828601614baf565b9150509250929050565b60008060408385031215614ca857600080fd5b6000614cb685828601614b9a565b9250506020614cc785828601614c03565b9150509250929050565b600080600060608486031215614ce657600080fd5b600084013567ffffffffffffffff811115614d0057600080fd5b614d0c86828701614baf565b9350506020614d1d86828701614c03565b9250506040614d2e86828701614c03565b9150509250925092565b600060208284031215614d4a57600080fd5b6000614d5884828501614c03565b91505092915050565b60008060408385031215614d7457600080fd5b6000614d8285828601614c03565b9250506020614d9385828601614b9a565b9150509250929050565b600080600060608486031215614db257600080fd5b6000614dc086828701614c03565b9350506020614dd186828701614c03565b9250506040614de286828701614c03565b9150509250925092565b600080600080600080600080610100898b031215614e0957600080fd5b6000614e178b828c01614c03565b9850506020614e288b828c01614c03565b9750506040614e398b828c01614c03565b965050606089013567ffffffffffffffff811115614e5657600080fd5b614e628b828c01614baf565b955050608089013567ffffffffffffffff811115614e7f57600080fd5b614e8b8b828c01614baf565b94505060a089013567ffffffffffffffff811115614ea857600080fd5b614eb48b828c01614baf565b93505060c089013567ffffffffffffffff811115614ed157600080fd5b614edd8b828c01614baf565b92505060e089013567ffffffffffffffff811115614efa57600080fd5b614f068b828c01614baf565b9150509295985092959890939650565b6000614f228383614faa565b60208301905092915050565b6000614f3a83836153e8565b905092915050565b6000614f4e8383615766565b905092915050565b6000614f628383615810565b905092915050565b6000614f76838361584d565b60608301905092915050565b6000614f8e838361588f565b905092915050565b6000614fa283836158f9565b905092915050565b614fb381615f12565b82525050565b614fc281615f12565b82525050565b6000614fd382615d7a565b614fdd8185615e6e565b9350614fe883615cf5565b8060005b838110156150195781516150008882614f16565b975061500b83615df5565b925050600181019050614fec565b5085935050505092915050565b600061503182615d6f565b61503b8185615e5d565b935061504683615ce5565b8060005b8381101561507757815161505e8882614f16565b975061506983615de8565b92505060018101905061504a565b5085935050505092915050565b600061508f82615d85565b6150998185615e7f565b9350836020820285016150ab85615d05565b8060005b858110156150e757848403895281516150c88582614f2e565b94506150d383615e02565b925060208a019950506001810190506150af565b50829750879550505050505092915050565b600061510482615d90565b61510e8185615e8a565b93508360208202850161512085615d0f565b8060005b8581101561515c578484038952815161513d8582614f42565b945061514883615e0f565b925060208a01995050600181019050615124565b50829750879550505050505092915050565b600061517982615d9b565b6151838185615e9b565b93508360208202850161519585615d1f565b8060005b858110156151d157848403895281516151b28582614f56565b94506151bd83615e1c565b925060208a01995050600181019050615199565b50829750879550505050505092915050565b60006151ee82615da6565b6151f88185615eac565b935061520383615d2f565b8060005b8381101561523457815161521b8882614f6a565b975061522683615e29565b925050600181019050615207565b5085935050505092915050565b600061524c82615dbc565b6152568185615ece565b93508360208202850161526885615d4f565b8060005b858110156152a457848403895281516152858582614f82565b945061529083615e43565b925060208a0199505060018101905061526c565b50829750879550505050505092915050565b60006152c182615db1565b6152cb8185615ebd565b9350836020820285016152dd85615d3f565b8060005b8581101561531957848403895281516152fa8582614f82565b945061530583615e36565b925060208a019950506001810190506152e1565b50829750879550505050505092915050565b600061533682615dc7565b6153408185615edf565b93508360208202850161535285615d5f565b8060005b8581101561538e578484038952815161536f8582614f96565b945061537a83615e50565b925060208a01995050600181019050615356565b50829750879550505050505092915050565b6153a981615f24565b82525050565b60006153ba82615ddd565b6153c48185615f01565b93506153d4818560208601615f76565b6153dd81615fa9565b840191505092915050565b60006153f382615dd2565b6153fd8185615ef0565b935061540d818560208601615f76565b61541681615fa9565b840191505092915050565b600061542c82615dd2565b6154368185615f01565b9350615446818560208601615f76565b61544f81615fa9565b840191505092915050565b6000615467601e83615f01565b91507f4f6e6c7920456e726f6c6c65642053747564656e7420416c6c6f7765642e00006000830152602082019050919050565b60006154a7601983615f01565b91507f4578616d20686173206e6f742073746172746564207965742e000000000000006000830152602082019050919050565b60006154e7602283615f01565b91507f596f7520617265206e6f7420656e726f6c6c656420696e20746869732065786160008301527f6d2e0000000000000000000000000000000000000000000000000000000000006020830152604082019050919050565b600061554d600f83615f01565b91507f496e76616c6964206578616d49642e00000000000000000000000000000000006000830152602082019050919050565b600061558d601f83615f01565b91507f4f6e6c7920417574686f72697a65205465616368657220416c6c6f7765642e006000830152602082019050919050565b60006155cd601983615f01565b91507f4578616d2068617320416c726561647920537461727465642e000000000000006000830152602082019050919050565b600061560d601883615f01565b91507f4578616d20686173206e6f7420737461727465642079657400000000000000006000830152602082019050919050565b600061564d602983615f01565b91507f4f6e6c7920456e726f6c6c65642053747564656e742063616e2052656365697660008301527f6520546f6b656e732e00000000000000000000000000000000000000000000006020830152604082019050919050565b60006156b3601383615f01565b91507f43616c6c6572206973206e6f742041646d696e000000000000000000000000006000830152602082019050919050565b60006156f3601f83615f01565b91507f4578616d2054696d65205375626d697373696f6e2068617320656e6465642e006000830152602082019050919050565b6000615733601983615f01565b91507f416e7377657220416c7265616479205375626d69747465642e000000000000006000830152602082019050919050565b600060e08301600083015161577e6000860182615936565b506020830151848203602086015261579682826153e8565b91505060408301516157ab6040860182614faa565b5060608301516157be6060860182615936565b5060808301516157d16080860182615936565b5060a083015184820360a08601526157e982826152b6565b91505060c083015184820360c08601526158038282615026565b9150508091505092915050565b60006040830160008301516158286000860182614faa565b506020830151848203602086015261584082826151e3565b9150508091505092915050565b6060820160008201516158636000850182615936565b5060208201516158766020850182615936565b5060408201516158896040850182615936565b50505050565b60006080830160008301516158a76000860182615936565b5060208301516158ba6020860182615936565b50604083015184820360408601526158d282826153e8565b915050606083015184820360608601526158ec8282615084565b9150508091505092915050565b60006040830160008301516159116000860182614faa565b506020830151848203602086015261592982826153e8565b9150508091505092915050565b61593f81615f50565b82525050565b61594e81615f50565b82525050565b61595d81615f5a565b82525050565b60006020820190506159786000830184614fb9565b92915050565b600060208201905081810360008301526159988184614fc8565b905092915050565b600060208201905081810360008301526159ba81846150f9565b905092915050565b600060208201905081810360008301526159dc818461516e565b905092915050565b600060208201905081810360008301526159fe8184615241565b905092915050565b60006020820190508181036000830152615a20818461532b565b905092915050565b6000602082019050615a3d60008301846153a0565b92915050565b60006020820190508181036000830152615a5d8184615421565b905092915050565b60006040820190508181036000830152615a7f81856153af565b90508181036020830152615a938184615241565b90509392505050565b60006020820190508181036000830152615ab58161545a565b9050919050565b60006020820190508181036000830152615ad58161549a565b9050919050565b60006020820190508181036000830152615af5816154da565b9050919050565b60006020820190508181036000830152615b1581615540565b9050919050565b60006020820190508181036000830152615b3581615580565b9050919050565b60006020820190508181036000830152615b55816155c0565b9050919050565b60006020820190508181036000830152615b7581615600565b9050919050565b60006020820190508181036000830152615b9581615640565b9050919050565b60006020820190508181036000830152615bb5816156a6565b9050919050565b60006020820190508181036000830152615bd5816156e6565b9050919050565b60006020820190508181036000830152615bf581615726565b9050919050565b6000602082019050615c116000830184615945565b92915050565b600060a082019050615c2c6000830188615945565b8181036020830152615c3e8187615421565b9050615c4d6040830186614fb9565b615c5a6060830185615945565b615c676080830184615945565b9695505050505050565b6000602082019050615c866000830184615954565b92915050565b6000604051905081810181811067ffffffffffffffff82111715615caf57600080fd5b8060405250919050565b600067ffffffffffffffff821115615cd057600080fd5b601f19601f8301169050602081019050919050565b6000819050602082019050919050565b6000819050602082019050919050565b6000819050919050565b6000819050602082019050919050565b6000819050602082019050919050565b6000819050602082019050919050565b6000819050602082019050919050565b6000819050602082019050919050565b6000819050602082019050919050565b600081519050919050565b600081519050919050565b600060049050919050565b600081519050919050565b600081519050919050565b600081519050919050565b600081519050919050565b600081519050919050565b600081519050919050565b600081519050919050565b600081519050919050565b6000602082019050919050565b6000602082019050919050565b6000602082019050919050565b6000602082019050919050565b6000602082019050919050565b6000602082019050919050565b6000602082019050919050565b6000602082019050919050565b6000602082019050919050565b600082825260208201905092915050565b600082825260208201905092915050565b600081905092915050565b600082825260208201905092915050565b600082825260208201905092915050565b600082825260208201905092915050565b600082825260208201905092915050565b600082825260208201905092915050565b600082825260208201905092915050565b600082825260208201905092915050565b600082825260208201905092915050565b6000615f1d82615f30565b9050919050565b60008115159050919050565b600073ffffffffffffffffffffffffffffffffffffffff82169050919050565b6000819050919050565b600060ff82169050919050565b82818337600083830152505050565b60005b83811015615f94578082015181840152602081019050615f79565b83811115615fa3576000848401525b50505050565b6000601f19601f8301169050919050565b615fc381615f12565b8114615fce57600080fd5b50565b615fda81615f50565b8114615fe557600080fd5b5056fea365627a7a7231582028d1c68c57bf0782e3c34bd53717bdcb4239889178f30985d8a29b347ba5eeba6c6578706572696d656e74616cf564736f6c63430005100040",
  "source": "pragma solidity ^0.5.11;\n//it is used for sending structured data in response. It will throw a warning for not using in production.\n//otherwise we have serialize and deserialize the data\npragma experimental ABIEncoderV2;\n\ncontract OnlineExam {\n\n//question structure, that would added by teacher, includes statement, mark, correct Index and 4 answers\n    struct Question{\n        uint mark;\n        uint correctIndex;\n        string statement;\n        string [4] answers;\n    }\n//examSubmission structure, that will be submitted by student for each respective question, with questionId and answerIndex. markObtained will be calculated by the function\n    struct ExamSubmission{\n        uint questionId;\n        uint answerIndex;\n        uint markObtained;\n    }\n\n//Exam structure, that would be created by Authorize teacher.\n//Questions array contains questions added by teacher\n//studentsCount would be used for getting addresses of enrolled students \n//studentsAllowed for checking status of students enrolled\n//answersSubmitted is Exam Submission array, which is holding examSubmission for each respective student\n    struct Exam{\n        uint startTime;\n        string subject;\n        address teacher;\n        uint duration;\n        uint date;\n        Question[] questions;\n        address [] studentsCount;\n        mapping(address => bool) studentsAllowed;\n        mapping(address => ExamSubmission[]) answersSubmitted;\n    }\n    \n//ExamResult structure for returning students result with its complete submission\n    struct ExamResult{\n        address student;\n        ExamSubmission[] examSubmission;\n    }\n\n//Teacher, Student structure to be returned\nstruct Users{\n    address userAddress;\n    string    name;\n}\n\n//all Exam Structure\n\nstruct AllExam {\n        uint startTime;\n        string subject;\n        address teacher;\n        uint duration;\n        uint date;\n        Question[] questions;\n        address [] studentsCount;\n}\n \nstruct AllExamWithResult {\n        uint startTime;\n        string subject;\n        address teacher;\n        uint duration;\n        uint date;\n        Question[] questions;\n        ExamResult [] submissions;\n}\n \n    \n//Token \n    string public constant tokenName = \"OnlineExamToken\";\n    string public constant tokenSymbol = \"OET\";\n    uint8 public constant decimals = 0;  \n    uint256 totalSupply = 1000000000000;\n//number of tokens against an address\n    mapping(address => uint256) balances;\n//owner of smart contract. Admin who will instantiate the contract.\n    address public owner; \n//Authorize list of teachers with their university id added by admin/owner\n    mapping( address => string) public teachers;\n//maintining count for all teachers\n    address[] public totalTeachersCount;\n//Authorize list of students with their university id added by Admin/owner\n    mapping( address => string ) public students;\n//maintining count for all students\n    address[] public totalStudentsCount;\n    \n//List of all exams created\n    Exam[] public exams;\n\n    event Transfer(address indexed from, address indexed to, uint tokens);\n\n//Modifier for checking caller is Admin only\n    modifier AdminOnly() {\n          require(msg.sender == owner, \"Caller is not Admin\");\n          _;\n    }\n\n//Modifier for checking caller is Teacher only\n    modifier TeacherOnly() {\n        bytes memory tempEmptyStringTest = bytes(teachers[msg.sender]);\n          require(tempEmptyStringTest.length != 0, \"Only Authorize Teacher Allowed.\");\n          _;\n    }\n//Modifier for checking caller is Student only\n    modifier StudentOnly(uint examId) {      \n            require(exams[examId].studentsAllowed[msg.sender], \"Only Enrolled Student Allowed.\");\n            _;\n    }\n    \n//Library used for addition/subtraction to avoid overflow issue/bug\n    using SafeMath for uint256;\n\n//constructor will be called, when contract first deployed\n//caller of the contract would become the owner/admin and total supply of tokens would be its balance\n    constructor() public {\n       owner = msg.sender;\n       balances[msg.sender] = totalSupply;\n    }  \n\n//getAll Teachers\nfunction getAllTeachers() public view AdminOnly TeacherOnly returns (Users[] memory){\n        Users[] memory returningTeachers = new Users[](totalTeachersCount.length);\n        for (uint i = 0; i<totalTeachersCount.length; i++){\n                    returningTeachers[i].userAddress = totalTeachersCount[i];\n                    returningTeachers[i].name = teachers[totalTeachersCount[i]];\n            }\n    return returningTeachers;\n}\n\n//getAll Students\nfunction getAllStudents() public view AdminOnly TeacherOnly returns (Users[] memory){\n    Users[] memory returningStudents = new Users[](totalStudentsCount.length);\n        for (uint i = 0; i<totalStudentsCount.length; i++){\n                    returningStudents[i].userAddress = totalStudentsCount[i];\n                    returningStudents[i].name = students[totalStudentsCount[i]];\n            }\n    return returningStudents;\n}\n//getAll Exams\n\nfunction getAllExams() public view AdminOnly TeacherOnly returns (AllExam[] memory){\n\n        AllExam[] memory allExams = new AllExam[](exams.length);\n            for(uint j=0; j<exams.length ; j++)\n            {\n                allExams[j].subject = exams[j].subject;\n                allExams[j].teacher = exams[j].teacher;\n                allExams[j].date =  exams[j].date;\n                allExams[j].duration = exams[j].duration;\n                allExams[j].startTime = exams[j].startTime;\n                allExams[j].questions = exams[j].questions;\n                allExams[j].studentsCount = exams[j].studentsCount;\n            }\n            return allExams;\n}\n\n//solidity limitation contract not deploying\n// function getAllExamsWithResults() public view AdminOnly TeacherOnly returns (AllExamWithResult[] memory){\n\n//         AllExamWithResult[] memory allExams = new AllExamWithResult[](exams.length);\n//             for(uint j=0; j<exams.length ; j++)\n//             {\n//                 allExams[j].subject = exams[j].subject;\n//                 allExams[j].teacher = exams[j].teacher;\n//                 allExams[j].date =  exams[j].date;\n//                 allExams[j].duration = exams[j].duration;\n//                 allExams[j].startTime = exams[j].startTime;\n//                 allExams[j].questions = exams[j].questions;\n//       for(uint i=0; i < exams[j].studentsCount.length; i++){\n\n//             //adding respective student address\n//             allExams[i].submissions[i].student = exams[j].studentsCount[i];\n//             //adding its submission in result array\n//             allExams[i].submissions[i].examSubmission = exams[j].answersSubmitted[exams[j].studentsCount[i]];\n//         }\n//             }\n//             return allExams;\n// }\n\n//fucntion for creating exam will be called by authorize teacher only\n//date will be pass in as unix timestamp\n//durationMinutes the duration of exam\n    function createExam(string memory subject, uint date, uint durationMinutes) public TeacherOnly returns (uint){\n        uint examId = exams.length++; // this is increment the total number of exams\n        exams[examId].subject = subject;\n        exams[examId].teacher = msg.sender;\n        exams[examId].date = date;\n        exams[examId].duration = durationMinutes;\n        return examId;\n    }\n\n//startExam will be called by teacher, to start the exam \n    function startExam(uint examId) public TeacherOnly returns(bool){\n        require(exams[examId].startTime == 0, 'Exam has Already Started.');\n        exams[examId].startTime = now;\n        return true;\n    }\n\n//Authorize teacher, enrolling students to respective exam by examId\n    function addStudentToExam(uint examId, address student) public TeacherOnly returns (bool){\n            exams[examId].studentsAllowed[student] = true; // making student allowed address value equal to true\n            exams[examId].studentsCount.push(student); //pushing student address in studentsCount\n            return true;\n    }\n//Teacher can see the total number of students with their address in exam\n    function getStudentsOfExam(uint examId) view public TeacherOnly returns (address [] memory){\n            return exams[examId].studentsCount;\n    }\n\n//Teacher will add questions to rescptive exam by its Id\n//other parameters are simple\n    function addQuestion(uint examId, uint mark, uint correctIndex, string memory statement,\n                        string memory answerOne, string memory answerTwo, string memory answerThree, string memory answerFour ) public TeacherOnly returns (bool){\n            \n            uint qId = exams[examId].questions.length++;\n            exams[examId].questions[qId].mark = mark;\n            exams[examId].questions[qId].correctIndex = correctIndex;\n            exams[examId].questions[qId].statement = statement;\n            exams[examId].questions[qId].answers[0] = answerOne;\n            exams[examId].questions[qId].answers[1] = answerTwo;\n            exams[examId].questions[qId].answers[2] = answerThree;\n            exams[examId].questions[qId].answers[3] = answerFour;\n            return true;\n    }\n//Teacher can get the total questions in an exam \n    function getQuestions(uint examId) view public TeacherOnly returns (Question[] memory){\n            return exams[examId].questions;\n    }\n//Students will submitAnswer one by one for each question \n//examId for which exam, quesionId for which question and answerIndex\n    function submitAnswer( uint examId, uint questionId, uint answerIndex ) public StudentOnly(examId) returns (bool){\n            \n            //checking exam has started or not\n            require(exams[examId].startTime > 0, 'Exam has not started yet'); \n            //checking exam duration ended\n            require((exams[examId].startTime + exams[examId].duration) <= now, 'Exam Time Submission has ended.');\n            \n            //If students has already answered the question\n            for(uint i=0 ; i<exams[examId].answersSubmitted[msg.sender].length ; i++){\n                if(exams[examId].answersSubmitted[msg.sender][i].questionId == questionId)\n                    revert('Answer Already Submitted.');\n            }\n            \n\n            //getting submission id, because answersSubmitted is a mapping which has examSubmission Array\n            //we need to get the count of total answers submitted to add new answer in the array\n            //then simply adding the answer submitted in the array, with questionId and answerIndex\n            uint subId = exams[examId].answersSubmitted[msg.sender].length++;\n            exams[examId].answersSubmitted[msg.sender][subId].questionId = questionId;\n            exams[examId].answersSubmitted[msg.sender][subId].answerIndex = answerIndex;\n            \n            //Checking if the answer submitted is correct\n            //if yes add the marks for answersubmitted else 0 given\n            if(exams[examId].questions[questionId].correctIndex == answerIndex)\n                exams[examId].answersSubmitted[msg.sender][subId].markObtained = exams[examId].questions[questionId].mark;\n            else\n                exams[examId].answersSubmitted[msg.sender][subId].markObtained = 0;\n            \n            return true;\n    }\n//students will call get Exam  by providing a date\n    function getExam( uint examId ) public view returns (string memory , Question[] memory ){\n            //checking valid examId\n            require(examId >= 0 && examId < exams.length , \"Invalid examId.\");\n            //check if exam has the same student calling is enrolled or not\n            require(exams[examId].studentsAllowed[msg.sender], \"You are not enrolled in this exam.\");\n                    \n            //checking if exam has started\n            require(exams[examId].startTime > 0, 'Exam has not started yet.');\n            \n            //return subject name of exam and all its questions with statement, marks, and 4answers\n            string memory subject = exams[examId].subject;\n            Question[] memory q = new Question[](exams[examId].questions.length);\n            for(uint j=0; j<exams[examId].questions.length ; j++)\n            {\n                q[j].mark = exams[examId].questions[j].mark;\n                q[j].correctIndex = 9; // making corect index to 9, otherwise it will send 0\n                q[j].statement = exams[examId].questions[j].statement;\n                q[j].answers[0] = exams[examId].questions[j].answers[0];\n                q[j].answers[1] = exams[examId].questions[j].answers[1];\n                q[j].answers[2] = exams[examId].questions[j].answers[2];\n                q[j].answers[3] = exams[examId].questions[j].answers[3];\n            }\n            return (subject, q);\n                          \n    }\n//Student can call getTotalMarks, to get the marks obtained by them in an eaxm by examId\n    function getTotalMarks(uint examId ) public view StudentOnly(examId) returns(uint){\n        uint marks = 0;\n        uint qId = 0 ;\n        uint answerIndex = 0;\n        uint correctIndex = 0;\n        //looping through all answers submitted by calling student \n        //then checking if answer is correct or not\n        //and respective marks\n        for (uint i=0; i < exams[examId].answersSubmitted[msg.sender].length ;i++){\n            qId = exams[examId].answersSubmitted[msg.sender][i].questionId;\n            answerIndex = exams[examId].answersSubmitted[msg.sender][i].answerIndex;\n            correctIndex = exams[examId].questions[qId].correctIndex;\n                \n            if(answerIndex == correctIndex){\n                marks = marks + exams[examId].questions[qId].mark;        \n            }\n        }\n        return marks;\n    }\n//getResult will be called by Admin or Techer to see the result of respective exam\n//it will be an with student address and their submissions\n    function getResult(uint examId) public view AdminOnly TeacherOnly returns (ExamResult[] memory ){\n        //initializing array with the number of students count in an exam\n        ExamResult[] memory result = new ExamResult[](exams[examId].studentsCount.length);    \n        for(uint i=0; i < exams[examId].studentsCount.length; i++){\n\n            //adding respective student address\n            result[i].student = exams[examId].studentsCount[i];\n            //adding its submission in result array\n            result[i].examSubmission = exams[examId].answersSubmitted[result[i].student];\n        }\n        return(result);\n    }\n//get the total supply of tokens\n    function getTotalSupply() public view returns (uint256) {\n\treturn totalSupply;\n    }\n//check the balance of an address, how many tokens he/she have\n    function balanceOf(address tokenOwner) public view returns (uint) {\n        return balances[tokenOwner];\n    }\n//transfer tokens from the admin account to students\n//only authorize teacher can make the trasaction\n    function transfer(address receiver, uint numTokens) public TeacherOnly returns (bool) {\n        //checking receiving student is added by the admin or not\n        bytes memory tempEmptyStringTest = bytes(students[msg.sender]);\n\n        require(tempEmptyStringTest.length != 0, \"Only Enrolled Student can Receive Tokens.\");\n        balances[owner] = balances[owner].sub(numTokens);\n        balances[receiver] = balances[receiver].add(numTokens);\n        emit Transfer(msg.sender, receiver, numTokens);\n        return true;\n    }\n\n//admin adding the student address with its universityId\n    function addStudent(address stuAddress, string memory name) public AdminOnly returns (bool) {\n        students[stuAddress] = name;\n        uint countLength =  totalStudentsCount.length++;\n        totalStudentsCount[countLength] = stuAddress;\n        return true;\n    }\n//admin removing the student address\n    function removeStudent( address stuAddress) public AdminOnly returns (bool){\n        delete students[stuAddress];\n        for (uint i = 0; i<totalStudentsCount.length; i++){\n            if(totalStudentsCount[i] == stuAddress){\n                delete totalStudentsCount[i];\n            }\n        }\n        return true;\n    }\n//admin adding the teacher address with its universityId\n    function addTeacher(address teacherAddress, string memory name) public AdminOnly  returns (bool){\n        teachers[teacherAddress] = name;\n        uint countLength =  totalTeachersCount.length++;\n        totalTeachersCount[countLength] = teacherAddress;\n        return true;\n    }\n//admin removing the teacher address \n    function removeTeacher( address teacherAddress) public AdminOnly returns (bool){\n        delete teachers[teacherAddress];\n        for (uint i = 0; i<totalTeachersCount.length; i++){\n            if(totalTeachersCount[i] == teacherAddress){\n                delete totalTeachersCount[i];\n            }\n        }\n                return true;\n    }\n    \n    function getTotalStudentsCount() public view returns(uint){\n        return totalStudentsCount.length;\n    }\n    function getTotalTeachersCount() public view returns(uint){\n        return totalTeachersCount.length;\n    } \n}\n//SafeMath library for add/sub to handle the overflow issue\n//SafeMath - is a solidity math library especially designed to support safe math operations\n// safe means that it prevents overflow when working with uint\n\nlibrary SafeMath { \n    function sub(uint256 a, uint256 b) internal pure returns (uint256) {\n      assert(b <= a);\n      return a - b;\n    }\n    \n    function add(uint256 a, uint256 b) internal pure returns (uint256) {\n      uint256 c = a + b;\n      assert(c >= a);\n      return c;\n    }\n}",
  "sourcePath": "/home/zohaib/ethereum/oet/contracts/oet.sol",
  "compiler": {
    "name": "solc",
    "version": "0.5.16+commit.9c3226ce.Emscripten.clang"
  },
  "schemaVersion": "3.2.0",
  "updatedAt": "2020-09-30T19:13:53.829Z",
  "devdoc": {
    "methods": {}
  },
  "userdoc": {
    "methods": {}
  }
}